:060000000A128A11F82F1C
:100DFA00F00070088312031393000800831603138C
:100E0A00141C082F092F032F08000A128A1103271E
:100E1A000A128A118312031313080800F3008316B7
:100E2A0003138712731D1A2F1B2F1F2F720894008A
:100E3A008715232F700872049400871173087104B0
:100E4A00831203139400080083160317880189018B
:100E5A008316031385018312031385018316031373
:100E6A0086018312031386018316031387138312E1
:100E7A000313871783160313880183120313880148
:100E8A00F001F101F20120300A128A1113270A1225
:100E9A008A1101300A128A1155270A128A1108008A
:100EAA00F200782F831603130F088F3940388F000A
:100EBA008E2F831603130F088F3950388F008E2F09
:100ECA00831603130F088F3960388F008E2F703006
:100EDA00831603138F048E2F831603130F088F397B
:100EEA0060388F008E2F7208F000F1017108003A05
:100EFA000319802F712F7008013A0319572F033AEB
:100F0A0003195E2F063A0319652F0C3A03196C2F41
:100F1A00712F0F1408000A128A1129270A128A113E
:100F2A008312031387135330F400F40B9A2F3E30C5
:100F3A000A128A11FD260A128A117708031DA62FA2
:100F4A00A72FB92F0A128A110A270A128A11F40046
:100F5A007408F600F701F70A5330F400F40BB32FC4
:100F6A00831203138713C22F0A128A110A270A123D
:100F7A008A11F4007408F800B12F2130F500763098
:100F8A00F400F40BC62FF50BC62F000083120313CF
:100F9A0087133C300A128A11FD260A128A1102307E
:100FAA008312031388000A128A110A270A128A1165
:100FBA00F4007408F9005330F400F40BE22F8312A2
:100FCA000313871779088500780886002130F50011
:100FDA007630F400F40BEF2FF50BEF2F0000952F6E
:100FEA000A128A110028F601F701F801F9018301B2
:060FFA000A128A11902F7B
:08400000FF3FFF3FFF3FFF3FC0
:04400E00D420FF3F7C
:00000001FF
